:1000000045C0000060C000005EC000005CC0000091
:100010005AC0000058C0000056C0000054C0000084
:1000200052C0000050C000004EC000004CC0000094
:100030004AC0000048C0000046C0000044C00000A4
:1000400042C0000040C00000C4C100003CC000002D
:100050003AC0000038C0000036C0000034C00000C4
:1000600032C0000030C000002EC000002CC00000D4
:100070002AC0000028C0000026C0000024C00000E4
:1000800022C0000020C000001EC0000011241FBEBE
:10009000CFEFD0E1DEBFCDBF11E0A0E0B1E0EEEFE9
:1000A000F4E000E00BBF02C007900D92AC39B1073D
:1000B000D9F721E0ACE9B1E001C01D92A63AB20740
:1000C000E1F702D01AC29CCFCF93DF93CDB7DEB752
:1000D000A0970FB6F894DEBF0FBECDBFC6D16DD0CE
:1000E00080E1EDE1F1E0DE01119601900D928A953B
:1000F000E1F78AE0EEE2F1E0DE01519601900D9227
:100100008A95E1F7FE017B9686E0DF011D928A95D4
:10011000E9F78EE391E0C1D1AE014F5F5F4F60E040
:1001200080E0D3D0AE014F5E5F4F60E081E0CDD084
:100130008AE591E0B2D1FFCFCF93DF9300D0CDB766
:10014000DEB7807F982F9C60998388608A8342E025
:1001500050E0BE016F5F7F4F8091000100D181119F
:10016000F6CF0F900F90DF91CF910895CF93DF934B
:1001700000D000D0CDB7DEB7982F907F292F2C600C
:10018000298398609A8320E1829FC0011124982FCF
:100190009C609B8388608C8344E050E0BE016F5F6D
:1001A0007F4F80910001DBD08111F6CF0F900F902F
:1001B0000F900F90DF91CF91089596D02FEF89E6A1
:1001C00098E1215080409040E1F700C0000088E7AE
:1001D00091E063D180E3B0DF8FE19EE40197F1F716
:1001E00000C0000080E3A8DF8FE891E00197F1F7FD
:1001F00000C0000080E3A0DF8FE891E00197F1F7F5
:1002000000C0000080E298DF8FE891E00197F1F7ED
:1002100000C0000088E2AADF87EC90E00197F1F7C8
:1002200000C0000088E0A2DF87EC90E00197F1F7C2
:1002300000C0000081E09ADF8FED9EE20197F1F7A8
:1002400000C0000086E092DF87EC90E00197F1F7B4
:1002500000C000008CE08ADF87EC90E00197F1F7A6
:1002600000C000008FE891E018C10895CF93DF939C
:1002700000D000D0CDB7DEB7982F907F292F2D600A
:10028000298399609A8320E1829FC0011124982FCD
:100290009D609B8389608C8344E050E0BE016F5F6A
:1002A0007F4F809100015BD08111F6CF0F900F90AE
:1002B0000F900F90DF91CF91089590E4899F600D8A
:1002C0001124862F806852CF0895CF93DF93EA01DF
:1002D000F4DF8881882329F02196C8DF8991811174
:1002E000FCCFDF91CF91089588E48093700008954A
:1002F000E4E7F0E0108294EA908390819923ECF790
:1003000090917100987F9830A1F48093730084E8F5
:1003100080937400E4E7F0E080818823ECF790910B
:100320007100987F983139F081E0903429F480E0B1
:10033000089581E0089580E008958093730084E833
:1003400080937400E4E7F0E080818823ECF79091DB
:100350007100987F81E0983209F480E00895CF928F
:10036000DF92FF920F931F93CF93DF936B018A016C
:10037000BFDFF82E811117C00115110581F0E601CC
:100380000C0D1D1D8991D9DF811110C08FE99FE0EF
:100390000197F1F700C000000C171D0799F784E9D9
:1003A0008093740005C0FF24F39402C0FF24F394EB
:1003B0008F2DDF91CF911F910F91FF90DF90CF9004
:1003C00008955D9BFECF8CB908955F9BFECF8CB1E5
:1003D00008951F920F920FB60F9211242F933F93FF
:1003E0004F935F938F939F938CB190ED980F9A30BA
:1003F00058F520919C0130919D01232BC1F0209153
:100400009E0130919F01A901440F551F220F331FF8
:10041000220F331F220F331F240F351F280F311DCA
:100420002053310930939F0120939E0113C090E027
:10043000C09790939F0180939E0181E090E09093FC
:100440009D0180939C0106C08D3021F410929D0186
:1004500010929C019F918F915F914F913F912F91AD
:100460000F900FBE0F901F9018951092900080E192
:1004700089B9599AE5E9F0E08081866080838AB184
:1004800088618AB9E0EAF1E081E091E091838083BC
:100490008FE091E09383828308950F931F93CF930E
:1004A000DF93E091A201F091A301238121FF1BC002
:1004B0008C01D0E0C0E0F80181918F016091A20130
:1004C0007091A301DB011896ED91FC911997882397
:1004D00031F00995892B79F3DFEFCFEFECCF8AE08C
:1004E0000995892B19F08FEF9FEF02C08D2F9C2F5C
:0E04F000DF91CF911F910F910895F894FFCFE7
:1004FE004E00000001000000000000E501000000B9
:10050E0000000200000000E1010000000050434620
:10051E00383537342049324320434C43440041544C
:10052E006D656761313238000000000000004265E1
:10053E00666F726520737472696E67207472616E75
:10054E00736665722E2E2E2E0D00737472696E6791
:10055E00207472616E7366657220636F6D706C6568
:10056E0074652E2E2E2E0D004265666F7265204923
:10057E006E697469616C697A652E2E2E200D0043AA
:0C058E006F6E6E656374204F6B0D0000F3
:00000001FF
