S0150000766F6C6174696C655F6E6565642E73726563B4
S113000045C0000060C000005EC000005CC000008D
S11300105AC0000058C0000056C0000054C0000080
S113002052C0000050C000004EC000004CC0000090
S11300304AC0000048C0000046C0000044C00000A0
S113004046C0000040C00000A1C000003CC0000049
S11300503AC0000038C0000036C0000034C00000C0
S113006032C0000030C000002EC000002CC00000D0
S11300702AC0000028C0000026C0000024C00000E0
S113008022C0000020C000001EC0000011241FBEBA
S1130090CFEFD0E1DEBFCDBF11E0A0E0B1E0E8EBEF
S11300A0F2E000E00BBF02C007900D92AC33B10741
S11300B0D9F721E0ACE3B1E001C01D92AA34B20744
S11300C0E1F702D0F7C09CCF51D0ACD0FFCF1F9244
S11300D00F920FB60F9211240BB60F922F933F93EA
S11300E04F935F936F937F938F939F93AF93BF933C
S11300F0EF93FF9380913C0190913D019C012F5F10
S11301003F4F30933D0120933C0180349105D9F455
S113011080913E0190913F0121E030E0009711F081
S113012020E030E030933F0120933E0110923D01E6
S113013010923C01892B21F48CE191E08BD003C017
S11301408CE291E087D0FF91EF91BF91AF919F91A5
S11301508F917F916F915F914F913F912F910F906C
S11301600BBE0F900FBE0F901F90189583B787603A
S113017083BF87B7816087BF789408955D9BFECF66
S11301808CB908955F9BFECF8CB108951F920F9296
S11301900FB60F9211242F933F934F935F938F9336
S11301A09F938CB190ED980F9A3058F520914001AF
S11301B030914101232BC1F0209142013091430140
S11301C0A901440F551F220F331F220F331F220F83
S11301D0331F240F351F280F311D2053310930934D
S11301E043012093420113C090E0C09790934301D0
S11301F08093420181E090E090934101809340011B
S113020006C08D3021F410924101109240019F915B
S11302108F915F914F913F912F910F900FBE0F904F
S11302201F9018951092900080E189B9599AE5E9D8
S1130230F0E08081866080838AB188618AB9E4E4D1
S1130240F1E080E091E0918380838EE091E09383FC
S1130250828308950F931F93CF93DF93E091460118
S1130260F0914701238121FF1BC08C01D0E0C0E045
S1130270F80181918F016091460170914701DB0182
S11302801896ED91FC911997882331F00995892BE3
S113029079F3DFEFCFEFECCF8AE00995892B19F0E2
S11302A08FEF9FEF02C08D2F9C2FDF91CF911F9175
S10B02B00F910895F894FFCFAB
S11302B80000000100000000C2000000000000006F
S11302C8000200000000BE000000000073746174A6
S11302D865206E756D62657220310D0073746174EA
S10F02E865206E756D62657220300D009B
S9030000FC
