:1000000045C0000060C000005EC000005CC0000091
:100010005AC000007AC00000A9C0000054C000000F
:1000200052C0000050C000004EC000004CC0000094
:100030004AC0000048C0000046C0000044C00000A4
:1000400042C0000040C0000012C100003CC00000DF
:100050003AC0000038C0000036C0000034C00000C4
:1000600032C0000030C000002EC000002CC00000D4
:100070002AC0000028C0000026C0000024C00000E4
:1000800022C0000020C000001EC0000011241FBEBE
:10009000CFEFD0E1DEBFCDBF11E0A0E0B1E0E8EAF4
:1000A000F3E000E00BBF02C007900D92A033B10750
:1000B000D9F721E0A0E3B1E001C01D92A634B20758
:1000C000E1F702D06FC19CCF84E191E090934101B0
:1000D0008093400182E291E090934301809342013A
:1000E0002CD18FEF8ABB84BB809164008F6080939A
:1000F000640083B1806383B989B7806389BF8AB79D
:100100008A608ABF789463D0FECF1F920F920FB699
:100110000F9211248F939F938FE39CE90197F1F73E
:1001200000C000008091300190913101029731F4BC
:1001300081E090E0909301018093000181E090E0E4
:1001400090933101809330010C9BFECF8FE39CE9AB
:100150000197F1F700C0000088B7806188BF9F91C8
:100160008F910F900FBE0F901F9018951F920F92B6
:100170000FB60F9211248F939F938FE39CE9019701
:10018000F1F700C00000809130019091310101979A
:1001900031F48FEF9FEF909301018093000182E093
:1001A00090E090933101809330010D9BFECF8FE35F
:1001B0009CE90197F1F700C0000088B7806288BF12
:1001C0009F918F910F900FBE0F901F901895CF9316
:1001D000DF93E0913E01F0913F01CF0168EE73E0C3
:1001E000BAD0CB012AE030E0B901B5D09093390103
:1001F00080933801CF0164E670E0ADD0CB01B90146
:10020000AAD09093370180933601CF01B901A3D0D2
:10021000FC01CB01B9019FD090933501809334014B
:10022000F0933301E0933201E2E0F1E0C2E3D1E088
:100230008081329680936500A991B991A65FBE4FE7
:100240008C9185BB8FE39FE10197F1F700C000001F
:1002500091E0EA30F90761F7DF91CF9108955D9B56
:10026000FECF8CB908955F9BFECF8CB108951F928D
:100270000F920FB60F9211240BB60F922F933F934C
:100280004F935F936F937F938F939F93AF93BF939E
:10029000EF93FF932CB180ED820F8A3068F5809147
:1002A0003C0190913D0130E00197C9F440913A0141
:1002B00050913B016AE0649FC001659F900D11243D
:1002C000E0E1F7E2BF0147D020533109820F931FCD
:1002D000BF0141D090933B0180933A011BC0205352
:1002E000310930933B0120933A0181E090E09093F3
:1002F0003D0180933C010EC02D3061F410923D0110
:1003000010923C0180913A0190913B0190933F0102
:1003100080933E01FF91EF91BF91AF919F918F919B
:100320007F916F915F914F913F912F910F900BBEF5
:100330000F900FBE0F901F9018951092900080E1C3
:1003400089B9599AE5E9F0E08081866080838AB1B5
:1003500088698AB9089597FB072E16F4009406D091
:1003600077FD08D00BD007FC05D03EF49095819521
:100370009F4F0895709561957F4F0895AA1BBB1BF1
:1003800051E107C0AA1FBB1FA617B70710F0A61B95
:10039000B70B881F991F5A95A9F780959095BC01B6
:0803A000CD010895F894FFCF90
:1003A80001000E000D000B0007003F065B4F666D55
:1003B8007D277F6700000001000000003301000076
:1003C800000000000002000000002F0100000000F3
:00000001FF
