:1000000045C0000060C000005EC000005CC0000091
:100010005AC0000058C0000056C0000054C0000084
:1000200052C0000050C000004EC000004CC0000094
:100030004AC0000048C0000046C0000044C00000A4
:1000400045C0000040C000003EC000003CC00000B1
:100050003AC0000038C0000036C0000034C00000C4
:1000600032C0000030C000002EC000002CC00000D4
:100070002AC0000028C0000026C0000024C00000E4
:1000800022C0000020C000001EC0000011241FBEBE
:10009000CFEFD0E1DEBFCDBF11E0A0E0B1E0E4EEF4
:1000A000F4E000E00BBF02C007900D92AC33B10743
:1000B000D9F721E0ACE3B1E001C01D92A034B20752
:1000C000E1F702D00DC29CCF32D0FECF1F920F922B
:1000D0000FB60F9211240BB60F928F939F93EF934D
:1000E000FF9380913E0190913F01892B41F4C49A86
:1000F00081E090E090933F0180933E0105C0C49859
:1001000010923F0110923E01E0913C01F0913D01BF
:10011000EC5CFE4F808182BFFF91EF919F918F91A8
:100120000F900BBE0F900FBE0F901F9018958F92DF
:100130009F92AF92BF92EF92FF920F931F93CF9334
:10014000DF93BC9A84E083BF83B7886683BF8091C6
:100150000001909101018F3F2FEF9207A1F1C2E0C2
:10016000D1E000E011E0FC01EC5CFE4F6081E62E86
:10017000F12CB8016E197F09072E000C880B990B22
:10018000C0D02AE939E949E95EE347D14B015C0176
:10019000B701FF0C880B990BB4D09B01AC01C501D2
:1001A000B4011DD080D061BF8FEF95EA2EE0815061
:1001B00090402040E1F700C00000899199918F3F65
:1001C0002FEF920781F6DF91CF911F910F91FF9052
:1001D000EF90BF90AF909F908F9008955058BB279D
:1001E000AA270ED0E0C0D1D030F0D6D020F031F424
:1001F0009F3F11F41EF4C6C00EF4E095E7FBBCC0AF
:10020000E92FE2D080F3BA176207730784079507D6
:1002100018F071F49EF5FAC00EF4E0950B2EBA2F8B
:10022000A02D0B01B90190010C01CA01A0011124FC
:10023000FF27591B99F0593F50F4503E68F11A16A8
:10024000F040A22F232F342F4427585FF3CF469539
:1002500037952795A795F0405395C9F77EF41F165B
:10026000BA0B620B730B840BBAF09150A1F0FF0F25
:10027000BB1F661F771F881FC2F70EC0BA0F621F11
:10028000731F841F48F4879577956795B795F79501
:100290009E3F08F0B3CF9395880F08F09927EE0F93
:1002A00097958795089598D088F09F5790F0B92F2B
:1002B0009927B751A0F0D1F0660F771F881F991FBB
:1002C0001AF0BA95C9F712C0B13081F09FD0B1E0F1
:1002D00008959CC0672F782F8827B85F39F0B93F01
:1002E000CCF3869577956795B395D9F73EF49095BD
:1002F0008095709561957F4F8F4F9F4F0895E8943B
:1003000009C097FB3EF490958095709561957F4F5D
:100310008F4F9F4F9923A9F0F92F96E9BB2793950B
:10032000F695879577956795B795F111F8CFFAF41B
:10033000BB0F11F460FF1BC06F5F7F4F8F4F9F4F4C
:1003400016C0882311F096E911C0772321F09EE8AA
:10035000872F762F05C0662371F096E8862F70E010
:1003600060E02AF09A95660F771F881FDAF7880FEA
:100370009695879597F9089597F99F6780E870E0BB
:1003800060E008959FEF80EC089500240A9416160B
:10039000170618060906089500240A941216130673
:1003A000140605060895092E0394000C11F4882301
:1003B00052F0BB0F40F4BF2B11F460FF04C06F5F1D
:1003C0007F4F8F4F9F4F089557FD9058440F551FF3
:1003D00059F05F3F71F04795880F97FB991F61F0C7
:1003E0009F3F79F087950895121613061406551F3E
:1003F000F2CF4695F1DF08C0161617061806991FAA
:10040000F1CF86957105610508940895E894BB279E
:1004100066277727CB0197F908950BD0C4CFB5DFB6
:1004200028F0BADF18F0952309F0A6CFABCF11243E
:10043000EECFCADFA0F3959FD1F3950F50E0551F83
:10044000629FF001729FBB27F00DB11D639FAA2729
:10045000F00DB11DAA1F649F6627B00DA11D661F78
:10046000829F2227B00DA11D621F739FB00DA11D99
:10047000621F839FA00D611D221F749F3327A00D53
:10048000611D231F849F600D211D822F762F6A2FEF
:1004900011249F5750408AF0E1F088234AF0EE0F74
:1004A000FF1FBB1F661F771F881F91505040A9F781
:1004B0009E3F510570F060CFAACF5F3FECF3983EAE
:1004C000DCF3869577956795B795F795E7959F5FE8
:1004D000C1F7FE2B880F911D9695879597F9089582
:0404E000F894FFCFBE
:1004E40004000200020004000200000001000200F7
:1004F40001000000020004000700040007000400DB
:1005040007000400020004000100030002000100CF
:0C0514000000FFFF112B424D6172758941
:00000001FF
