:1000000045C0000060C000005EC000005CC0000091
:100010005AC0000058C0000056C0000054C0000084
:1000200052C0000050C000004EC000004CC0000094
:100030004AC0000048C0000046C0000044C00000A4
:1000400042C0000040C00000AFC000003CC0000043
:100050003AC0000038C0000036C0000034C00000C4
:1000600032C0000030C000002EC000002CC00000D4
:100070002AC0000028C0000026C0000024C00000E4
:1000800022C0000020C000001EC0000011241FBEBE
:10009000CFEFD0E1DEBFCDBF11E0A0E0B1E0E0EEF8
:1000A000F2E000E00BBF02C007900D92AE32B10744
:1000B000D9F721E0AEE2B1E001C01D92A034B20751
:1000C000E1F702D00BC19CCF8FEF84BB8FE0809310
:1000D0006400C2D0D9D00F2EFEE2EF2EF1E0FF2E49
:1000E000F02D0F2EF8EEAF2EF3E0BF2EF02D2AE00C
:1000F00030E00F2EF4E6CF2ED12CF02D08E011E0E9
:100100000F2EF5E68F2E912CF02D809138019091D5
:100110003901B501BCD0CB01B901B9D0D7011796CF
:100120009C938E9316978091380190913901B60176
:10013000AED0CB01B901ABD0E7019D838C83809118
:10014000380190913901B901A2D0CB01B9019FD0FA
:100150009B838A838091380190913901B90197D0AE
:1001600099838883E0E0F1E08EE291E0408132966D
:10017000D4014C93EC01A991B991CE01A85FBE4F77
:100180004C9145BBAFE3BFE11197F1F700C0000010
:10019000E017F10759F7B9CF5D9BFECF8CB90895F1
:1001A0005F9BFECF8CB108951F920F920FB60F92F6
:1001B00011242F933F934F935F936F937F938F936C
:1001C0009F93AF93BF938CB190ED980F9A3078F5D1
:1001D0002091360130913701232BE1F02091380135
:1001E00030913901A901440F551F220F331F220FEF
:1001F000331F220F331F240F351FA901480F511D34
:10020000CA01C09760E177E242D0909339018093B0
:10021000380113C090E0C097909339018093380162
:1002200081E090E0909337018093360106C08D30D5
:1002300021F41092370110923601BF91AF919F9136
:100240008F917F916F915F914F913F912F910F907F
:100250000FBE0F901F9018951092900080E189B901
:10026000599AE5E9F0E08081866080838AB18861EF
:100270008AB9EAE3F1E082E191E09183808380E250
:1002800091E0938382830895579A7894089597FB19
:10029000072E16F4009406D077FD08D00BD007FC8B
:1002A00005D03EF4909581959F4F08957095619586
:1002B0007F4F0895AA1BBB1B51E107C0AA1FBB1F9C
:1002C000A617B70710F0A61BB70B881F991F5A95E2
:1002D000A9F780959095BC01CD010895F894FFCFC2
:1002E0000E000D000B0007003F065B4F666D7D277B
:1002F0007F670000000100000000D0000000000047
:0E0300000000000200000000CC000000000021
:00000001FF
