S01500006164635F696E746572727570742E737265639B
S113000045C0000060C000005EC000005CC000008D
S11300105AC0000058C0000056C0000054C0000080
S113002052C0000050C000004EC000004CC0000090
S11300304AC0000048C0000046C0000044C00000A0
S113004042C0000040C0000067C000003CC0000087
S11300503AC000003EC0000036C0000034C00000BA
S113006032C0000030C000002EC000002CC00000D0
S11300702AC0000028C0000026C0000024C00000E0
S113008022C0000020C000001EC0000011241FBEBA
S1130090CFEFD0E1DEBFCDBF11E0A0E0B1E0E4EEF0
S11300A0F1E000E00BBF02C007900D92AC31B10744
S11300B0D9F721E0ACE1B1E001C01D92A832B2074A
S11300C0E1F702D08DC09CCF73D081E00DD019D060
S11300D0FFCF1F920F920FB60F921124349A0F90F4
S11300E00FBE0F901F90189597B19064982B97B9F5
S11300F096B1976E96B990E090931D0180931C0180
S11301000895339A789408955D9BFECF8CB9089531
S11301105F9BFECF8CB108951F920F920FB60F9282
S113012011242F933F934F935F938F939F938CB19D
S113013090ED980F9A3058F520911E0130911F01CF
S1130140232BC1F02091200130912101A901440FFA
S1130150551F220F331F220F331F220F331F240F6B
S1130160351F280F311D205331093093210120936D
S1130170200113C090E0C097909321018093200147
S113018081E090E090931F0180931E0106C08D30A2
S113019021F410921F0110921E019F918F915F9183
S11301A04F913F912F910F900FBE0F901F90189574
S11301B01092900080E189B9599AE5E9F0E08081D4
S11301C0866080838AB188618AB9E2E2F1E080E0E6
S11301D091E0918380838EE091E0938382830895FC
S10701E0F894FFCFBD
S11301E4000000010000000088000000000000007E
S10F01F400020000000084000000000075
S9030000FC
