:1000000045C000004BC0000049C0000047C00000D0
:1000100045C0000044C0000064C000003FC00000B4
:100020003DC000003BC0000039C0000037C00000E8
:1000300035C0000033C0000031C000002FC00000F8
:100040002DC000002BC0000029C0000027C0000008
:1000500025C0000023C0000021C000001FC0000018
:100060001DC000001BC0000019C0000017C0000028
:1000700015C0000013C0000011C000000FC0000038
:100080000DC000000BC0000009C0000011241FBEFD
:10009000CFEFD0E1DEBFCDBF3FD041C0B1CF1F9287
:1000A0000F920FB60F9211242F938F939F938BB3C0
:1000B00080958BBB2FEF80E792E0215080409040ED
:1000C000E1F700C000000C9BFECF88B78F7E88BF91
:1000D00078949F918F912F910F900FBE0F901F904A
:1000E00018951F920F920FB60F9211240F900FBE0A
:1000F0000F901F9018958FEF8ABB82B18F7C82B9C9
:1001000083B1806383B9089589B7806389BF8AB753
:1001100082608ABF78940895EEDFF6DFFFCFF8940F
:02012000FFCF0F
:00000001FF
