:1000000045C0000060C000005EC000005CC0000091
:100010005AC000005CC000008FC0000054C0000047
:1000200052C0000050C000004EC000004CC0000094
:100030004AC0000048C0000046C0000044C00000A4
:1000400042C0000040C00000CDC000003CC0000025
:100050003AC0000038C0000036C0000034C00000C4
:1000600032C0000030C000002EC000002CC00000D4
:100070002AC0000028C0000026C0000024C00000E4
:1000800022C0000020C000001EC0000011241FBEBE
:10009000CFEFD0E1DEBFCDBF11E0A0E0B1E0E0E8FE
:1000A000F2E000E00BBF02C007900D92A030B10754
:1000B000D9F721E0A0E0B1E001C01D92A430B20761
:1000C000E1F702D0DBC09CCF75D06CD0FFCF1F9280
:1000D0000F920FB60F9211240BB60F928F939F932E
:1000E000EF93FF938FE39CE90197F1F700C00000C5
:1000F0000C9BFECF8FE39CE90197F1F700C0000055
:1001000080918600909187000597839738F0E6E804
:10011000F0E08081918105979183808388B7806129
:1001200088BFFF91EF919F918F910F900BBE0F9021
:100130000FBE0F901F9018951F920F920FB60F923F
:1001400011240BB60F928F939F93EF93FF938FE33E
:100150009CE90197F1F700C000000D9BFECF8FE3F3
:100160009CE90197F1F700C0000080918600909112
:10017000870005968739910538F4E6E8F0E080813C
:10018000918105969183808388B7806288BFFF91B3
:10019000EF919F918F910F900BBE0F900FBE0F901C
:1001A0001F9018958AB78A608ABF89B7806389BF14
:1001B00078940895139AEBE8F0E080818268808358
:1001C000EAE8F0E080818C61808382EE94E0909395
:1001D0008100809380008DE590E09093870080936C
:1001E000860008951F920F920FB60F9211242F933D
:1001F0003F934F935F938F939F938CB190ED980FA4
:100200009A3058F52091000130910101232BC1F063
:100210002091020130910301A901440F551F220FC3
:10022000331F220F331F220F331F240F351F280FB8
:10023000311D20533109309303012093020113C073
:1002400090E0C097909303018093020181E090E0D9
:10025000909301018093000106C08D3021F410922B
:100260000101109200019F918F915F914F913F91F9
:100270002F910F900FBE0F901F901895F894FFCFFD
:00000001FF
